S01700004763634170706C69636174696F6E372E7372656355
S11300000C9424010C9441010C9441010C94410181
S11300100C9441010C9441010C9441010C94410154
S11300200C9441010C9441010C9441010C94410144
S11300300C9441010C9441010C9424040C9441014E
S11300400C9441010C9441010C9441010C94410124
S11300500C9441010C9441010C9441010C94410114
S11300600C9441010C944101000000000000005F69
S113007000000007000700147F147F14242A7F2A3D
S11300801223130864623649552250000503000008
S1130090001C2241000041221C0014083E081408E0
S11300A0083E0808005030000008080808080060EE
S11300B060000020100804023E5149453E00427F82
S11300C0400042615149462141454B311814127F89
S11300D01027454545393C4A494930017109050312
S11300E03649494936064949291E0036360000007A
S11300F0563600000814224100141414141400414C
S11301002214080201510906324979413E7E111137
S1130110117E7F494949363E414141227F41414157
S11301203E7F494949417F090909013E4149497ACC
S11301307F0808087F00417F41002040413F017F44
S1130140081422417F404040407F0204027F7F0424
S113015008107F3E4141413E7F090909063E415155
S1130160215E7F09192946464949493101017F0128
S1130170013F4040403F1F2040201F7F2018207F28
S1130180631408146303047804036151494543006C
S11301907F41410002040810200041417F00040215
S11301A00102044040404040000307000020545432
S11301B054787F48444438384444442038444448BC
S11301C07F3854545418087E0901020C5252523E8E
S11301D07F0804047800447D40002040443D007FB3
S11301E01028440000417F40007C041804787C08F7
S11301F004047838444444387C141414080814144F
S1130200187C7C080404084854545420043F444097
S1130210203C4040207C1C2040201C3C4030403C82
S113022044281028440C5050503C4464544C44001E
S11302300836410000007F0000004136080008082D
S11302402A1C08081C2A080811241FBECFEFD8E076
S1130250DEBFCDBF12E0A0E0B1E0E2E0FDE102C00C
S113026005900D92AC37B107D9F723E0ACE7B2E0C3
S113027001C01D92A936B207E1F70E9495060C94BD
S11302807F0E0C94000086E880937A0008958770AE
S1130290ECE7F0E09081987F892B8083EAE7F0E037
S11302A080818064808380917A0086FDFCCF809178
S11302B078009091790008951092B90082E08093BB
S11302C0B80084E08093BC00089584EA8093BC0065
S11302D08091BC008823E4F7089584E98093BC00EE
S11302E008958093BB0084E88093BC008091BC0097
S11302F08823E4F7089584EC8093BC008091BC00CB
S11303008823E4F78091BB00089584E88093BC00BF
S11303108091BC008823E4F78091BB00089584B1E8
S1130320826084B98AB188608AB984B1816084B9F1
S1130330089585B18E7F85B9089585B1816085B9A9
S11303400895CF93C82F0E94650188E70E94710128
S113035080E00E9471018C2F0E9471010E946D0146
S1130360CF910895CF93C82F0E94650188E70E941A
S1130370710180E40E9471018C2F0E9471010E941E
S11303806D01CF910895CF93DF93D0E013C080EB3C
S11303908D0F0E94A10180E00E94A10180E10E94D2
S11303A0A101C0E004C080E00E94B201CF5FC23866
S11303B0D0F3DF5FD83058F3DF91CF9108958EEA00
S11303C00E94A10185ED0E94A10180E80E94A10183
S11303D088EA0E94A1018FE30E94A10183ED0E949B
S11303E0A10180E00E94A10180E40E94A1018DE8A6
S11303F00E94A10184E10E94A10180E20E94A10166
S113040080E00E94A10181EA0E94A10188EC0E947F
S1130410A1018AED0E94A10182E10E94A10181E86B
S11304200E94A1018FE70E94A10189ED0E94A10110
S113043081EF0E94A1018BED0E94A10180E40E9442
S1130440A10184EA0E94A10186EA0E94A1010E94FE
S1130450C3018FEA0E94A1010895CF93C62F80554E
S11304600E94A1018C2F8F700E94A1018C2F829574
S11304708F70805F0E94A101CF9108950F931F9305
S1130480CF93DF93EC0100E02BC080528036A8F0BC
S113049010E01FC0888190E08097FC01EE0FFF1FE1
S11304A0EE0FFF1FE80FF91FE10FF11DE859FF4F91
S11304B084910E94B2011F5F01C010E0153050F317
S11304C080E00E94B2010A5F0AC080E00E94B2018B
S11304D01F5F1530D0F380E00E94B2010A5F2196BD
S11304E088818111D2CF04C080E00E94B2010F5FE5
S11304F00023D4F7DF91CF911F910F910895E091DC
S11305007F02F0E0EE0FFF1FE657FD4F91838083DB
S113051080917F0290E001966AE070E00E945E0B99
S113052080937F0280E020E030E00BC0E82FF0E011
S1130530EE0FFF1FE657FD4F40815181240F351FF9
S11305408F5F8A3098F3ADECBCEC0E94720B9695E9
S11305508795969587959695879508958F929F92FE
S1130560AF92BF92CF92DF92EF92FF929093850267
S1130570809384028090B2029090B302A090B4025F
S1130580B090B5022091AE023091AF024091B0021A
S11305905091B102C501B4010E94C5086B017C01F0
S11305A06093AA027093AB028093AC029093AD0265
S11305B0209184023091850280910201909103017F
S11305C02817390778F520E030E040E85EE36091D1
S11305D008017091090180910A0190910B010E9418
S11305E0960A20E030E040E450E40E94960A9B0121
S11305F0AC01C701B6010E94910A18169CF420911F
S1130600840230918502809104019091050128179C
S1130610390740F4809184029091850290930501FA
S1130620809304012091840230918502809102011B
S1130630909103018217930798F4209184023091DA
S1130640850280910601909107018217930740F477
S11306508091840290918502909307018093060112
S113066020E030E040E753E4C701B6010E94910A5C
S113067088230CF463C02091840230918502809118
S11306800201909103018217930708F057C08091EB
S11306907C02811153C020E030E040E85EE36091C9
S11306A008017091090180910A0190910B010E9447
S11306B0960A20E030E040E450E40E94960A9B0150
S11306C0AC01C701B6010E94910A1816BCF581E07D
S11306D080937C02C0920801D0920901E0920A0141
S11306E0F0920B018092AE029092AF02A092B002FF
S11306F0B092B10280917D028823B9F010927D02FC
S113070081E080930001A701960160E070E68AE62B
S113071097E40E94370960939E0270939F0280932E
S1130720A0029093A1020E94990180910001882364
S113073029F01092000181E080937D0220918402CF
S113074030918502809102019091030128173907A5
S1130750A0F580917C02882381F110927C02809123
S11307600601909107012091040130910501821B3B
S1130770930B9093870280938602809186029091D6
S11307808702969587952091040130910501820F87
S1130790931F909303018093020180910201909131
S11307A003019093070180930601809102019091C7
S11307B0030190930501809304016091AA02709152
S11307C0AB028091AC029091AD0220E030E04AEFA0
S11307D054E40E94910A18162CF582E192E0909359
S11307E003018093020180E092E0909307018093DB
S11307F0060190930501809304018091B2029091C7
S1130800B302A091B402B091B5028093AE0290936A
S1130810AF02A093B002B093B10281E080930001D3
S113082010927D02FF90EF90DF90CF90BF90AF9039
S11308309F908F90089582E084BD93E095BD9CE7DE
S113084097BD80936E0008951F920F920FB60F927A
S11308501124CF92DF92EF92FF922F933F934F9305
S11308605F936F937F938F939F93AF93BF93CF9334
S1130870DF93EF93FF9320E030E040E85FE3609183
S1130880B2027091B3028091B4029091B5020E94B9
S1130890C6086093B2027093B3028093B40290933B
S11308A0B50281E08093810280910101833019F4C3
S11308B081E08093010180910101823049F48091AB
S11308C08802909189020E94AE0283E08093010124
S11308D080910101813061F482E00E9447010E940D
S11308E07F02909389028093880282E080930101C1
S11308F06091B2027091B3028091B4029091B502FA
S11309000E94A909CB0164E670E00E945E0B892B6A
S113091011F40E949D01C090B202D090B302E09005
S1130920B402F090B502C701B6010E94A909EB0117
S1130930CB0168EE73E00E945E0B892BF9F42091E1
S11309409E0230919F024091A0025091A1026091B9
S1130950A6027091A7028091A8029091A9020E9418
S1130960C6086093A6027093A7028093A80290938E
S1130970A90281E08093800210927E02CE016CE491
S11309807DE10E945E0B892B79F481E080938302E0
S1130990809182028F5F80938202809182028430F0
S11309A018F081E08093820220E030E64AE657E4C2
S11309B0C701B6010E94910A181674F520E030E0D0
S11309C040E752E46091A6027091A7028091A802C8
S11309D09091A9020E9437096093A2027093A30226
S11309E08093A4029093A5021092A6021092A702EB
S11309F01092A8021092A9021092B2021092B302AD
S1130A001092B4021092B5021092AE021092AF028C
S1130A101092B0021092B102FF91EF91DF91CF9149
S1130A20BF91AF919F918F917F916F915F914F9102
S1130A303F912F91FF90EF90DF90CF900F900FBEDA
S1130A400F901F90189580E88093800084E1809334
S1130A50810089E09DE39093870080938600089548
S1130A60E0EBF0E083E0808380818062808382E039
S1130A708093B10087EC8093B40008951092C50070
S1130A808CE08093C40082E08093C00088E080936F
S1130A90C10086E08093C20008959091C00095FF44
S1130AA0FCCF8093C6000895CF93DF93EC0103C07D
S1130AB00E944D05219688818111FACFDF91CF9153
S1130AC008950E94650180ED0E9471018BE60E94E9
S1130AD0710180E00E9471010E946D0108954F929E
S1130AE05F926F927F928F929F92AF92BF92CF92BA
S1130AF0DF92EF92FF920F931F93CF93DF930E94A5
S1130B00650180ED0E9471018BE30E9471010E94D6
S1130B106D010E94650181ED0E9471010E947B01BB
S1130B20082F0E947B0110E0102F0027082B0E9441
S1130B307B01C82F0E947B012C2F30E0322F22270B
S1130B407901E82A0E947B01C82F0E9485012C2F7D
S1130B5030E0322F2227E901C82B0E946D01B80131
S1130B60110F880B990B0E94E10920E030E040E866
S1130B7058E30E94960A4B015C01B701FF0C880BF5
S1130B80990B0E94E10920E030E040E858E30E941C
S1130B90960A6B017C01BE01DD0F880B990B0E9444
S1130BA0E10920E030E040E858E30E94960A2B0176
S1130BB03C01A5019401C501B4010E94960A4B01B0
S1130BC05C01A7019601C701B6010E94960A9B0128
S1130BD0AC01C501B4010E94C6086B017C01A301EC
S1130BE09201C301B2010E94960A9B01AC01C701A4
S1130BF0B6010E94C6080E94090B4B015C012091BA
S1130C000C0130910D0140910E0150910F010E9491
S1130C10C5089F772AE939E949E95FE30E94910A07
S1130C2018161CF481E080937E0280920C0190924D
S1130C300D01A0920E01B0920F01DF91CF911F918F
S1130C400F91FF90EF90DF90CF90BF90AF909F9067
S1130C508F907F906F905F904F90089583E00E94F3
S1130C604701BC0180E090E00E94DF0923E333E305
S1130C7043E550E40E94960A20E030EC4FE754E448
S1130C800E9437096093B6027093B7028093B8024A
S1130C909093B90220E030E040E450E40E94910ACD
S1130CA0181664F480E090E0A0E4B0E48093B60207
S1130CB09093B702A093B802B093B9026091B602C0
S1130CC07091B7028091B8029091B9022AE939E98A
S1130CD049E150E40E943209882364F48AE999E9DD
S1130CE0A9E1B0E48093B6029093B702A093B8024E
S1130CF0B093B9022AE939E949E150E46091B602B6
S1130D007091B7028091B8029091B9020E94C5080F
S1130D1028E939E949E15FE30E94370920E030E03E
S1130D2048EC52E40E94960A08950E9443010E94EE
S1130D305C010E948F010E94DF010E941B040E943B
S1130D4023050E9430050E943E050E9461057894A7
S1130D508AB1877F8AB980918600909187009695A1
S1130D60879590938900809388000E946F058091F5
S1130D708002813061F40E942E066093BA0270935F
S1130D80BB028093BC029093BD02109280028091BA
S1130D908302813009F081C080918202882309F4A2
S1130DA07CC080918202813071F48DE2E0E1F1E057
S1130DB0AFEBB2E001900D928A95E1F78FEB92E0F0
S1130DC00E94540568C0809182028230F1F46091DF
S1130DD09E0270919F028091A0029091A10220E056
S1130DE030E048EC52E40E943209882374F480E134
S1130DF0EDE3F1E0AFEBB2E001900D928A95E1F7FB
S1130E008FEB92E00E94540546C0809182028230AA
S1130E10F1F460919E0270919F028091A0029091E2
S1130E20A10220E030E048EC52E40E94910A8823B9
S1130E3074F080E1EDE4F1E0AFEBB2E001900D92EB
S1130E408A95E1F78FEB92E00E94540524C08091CB
S1130E508202833001F560919E0270919F0280911D
S1130E60A0029091A1020E94A9097F936F938DE53E
S1130E7091E09F938F938FEB92E09F938F930E94C7
S1130E80950B8FEB92E00E9454050F900F900F90FA
S1130E900F900F900F901092830280918102813005
S1130EA009F063CF8091BE02811156C062E081E0F7
S1130EB00E942D0288EA91E00E943E0262E082E0F4
S1130EC00E942D0287EB91E00E943E0262E083E0E3
S1130ED00E942D028FEB91E00E943E0262E084E0CA
S1130EE00E942D028EEC91E00E943E0262E086E0B8
S1130EF00E942D0286ED91E00E943E0262E087E0AE
S1130F000E942D0284EE91E00E943E022FEF89E6BA
S1130F1098E1215080409040E1F700C000000E9419
S1130F20C30162E081E00E942D0280EF91E00E9403
S1130F303E0262E082E00E942D028EEF91E00E9468
S1130F403E0262E083E00E942D028CE092E00E9467
S1130F503E0281E08093BE02C0909E02D0909F0228
S1130F60E090A002F090A10220E030E040EF51E4D4
S1130F70C701B6010E94910A882344F120E030E0C1
S1130F8040E753E4C701B6010E9432091816F4F091
S1130F90C701B6010E94A9097F936F938BE192E088
S1130FA09F938F9387E393E09F938F930E94950B76
S1130FB062E081E00E942D0287E393E00E943E02FA
S1130FC00F900F900F900F900F900F9080917E02D2
S1130FD0813061F48AB188608AB962E080E00E945D
S1130FE02D0288E292E00E943E0227C060919E0298
S1130FF070919F028091A0029091A10220E030E0C4
S113100044E353E40E94910A882364F08AB188601F
S11310108AB962E080E00E942D028DE292E00E9493
S11310203E020BC08AB1877F8AB962E080E00E94E9
S11310302D0283E492E00E943E02C090A202D0906E
S1131040A302E090A402F090A50220E030E0A90100
S1131050C701B6010E94910A1816F4F4C701B6013B
S11310600E94A9097F936F9387E392E09F938F93E4
S113107087E393E09F938F930E94950B62E082E055
S11310800E942D0287E393E00E943E020F900F908E
S11310900F900F900F900F906091BA027091BB0265
S11310A08091BC029091BD020E94A90916161706F0
S11310B0D4F47F936F9385E492E09F938F9387E3B7
S11310C093E09F938F930E94950B62E083E00E94CC
S11310D02D0287E393E00E943E020F900F900F9041
S11310E00F900F900F906091B2027091B3028091B3
S11310F0B4029091B5020E94A9097F936F9384E58D
S113110092E09F938F93C7E3D3E0DF93CF930E9442
S1131110950B62E085E00E942D02CE010E943E0202
S113112080910201909103019F938F9381E692E055
S11311309F938F93DF93CF930E94950B62E086E099
S11311400E942D02CE010E943E028091880290915D
S113115089029F938F938EE692E09F938F93DF9300
S1131160CF930E94950B62E087E00E942D02CE018E
S11311700E943E02109281028DB79EB742960FB62E
S1131180F8949EBF0FBE8DBFF0CD5058BB27AA2741
S11311900E94DD080C94570A0E94490A38F00E9404
S11311A0500A20F039F49F3F19F426F40C94460AAF
S11311B00EF4E095E7FB0C94400AE92F0E94680ABC
S11311C058F3BA17620773078407950720F079F478
S11311D0A6F50C948A0A0EF4E0950B2EBA2FA02DD6
S11311E00B01B90190010C01CA01A0011124FF27D0
S11311F0591B99F0593F50F4503E68F11A16F040CB
S1131200A22F232F342F4427585FF3CF46953795C9
S11312102795A795F0405395C9F77EF41F16BA0B8E
S1131220620B730B840BBAF09150A1F0FF0FBB1F3C
S1131230661F771F881FC2F70EC0BA0F621F731F85
S1131240841F48F4879577956795B795F7959E3FE2
S113125008F0B0CF9395880F08F09927EE0F979573
S1131260879508950E941C0A08F481E008950E945D
S11312704B090C94570A0E94500A58F00E94490ADC
S113128040F029F45F3F29F00C94400A51110C946A
S11312908B0A0C94460A0E94680A68F39923B1F3F6
S11312A0552391F3951B550BBB27AA276217730788
S11312B0840738F09F5F5F4F220F331F441FAA1F1C
S11312C0A9F335D00E2E3AF0E0E832D091505040D8
S11312D0E695001CCAF72BD0FE2F29D0660F771F86
S11312E0881FBB1F261737074807AB07B0E809F06C
S11312F0BB0B802DBF01FF2793585F4F3AF09E3FF1
S1131300510578F00C94400A0C948B0A5F3FE4F387
S1131310983ED4F3869577956795B795F7959F5F33
S1131320C9F7880F911D9695879597F90895E1E07F
S1131330660F771F881FBB1F621773078407BA07DE
S113134020F0621B730B840BBA0BEE1F88F7E09539
S113135008950E94B0096894B1110C948B0A089501
S11313600E94700A88F09F5798F0B92F9927B751B7
S1131370B0F0E1F0660F771F881F991F1AF0BA9535
S1131380C9F714C0B13091F00E948A0AB1E00895FF
S11313900C948A0A672F782F8827B85F39F0B93FF1
S11313A0CCF3869577956795B395D9F73EF49095E8
S11313B08095709561957F4F8F4F9F4F0895E89466
S11313C009C097FB3EF490958095709561957F4F89
S11313D08F4F9F4F9923A9F0F92F96E9BB27939537
S11313E0F695879577956795B795F111F8CFFAF447
S11313F0BB0F11F460FF1BC06F5F7F4F8F4F9F4F78
S113140016C0882311F096E911C0772321F09EE8D5
S1131410872F762F05C0662371F096E8862F70E03B
S113142060E02AF09A95660F771F881FDAF7880F15
S11314309695879597F90895990F0008550FAA0B6B
S1131440E0E8FEEF16161706E807F907C0F01216D3
S11314501306E407F50798F0621B730B840B950BD6
S113146039F40A2661F0232B242B252B21F408952B
S11314700A2609F4A140A6958FEF811D811D0895C8
S113148097F99F6780E870E060E008959FEF80EC33
S1131490089500240A9416161706180609060895D6
S11314A000240A9412161306140605060895092E3C
S11314B00394000C11F4882352F0BB0F40F4BF2BAB
S11314C011F460FF04C06F5F7F4F8F4F9F4F0895EB
S11314D057FD9058440F551F59F05F3F71F04795E1
S11314E0880F97FB991F61F09F3F79F087950895C6
S11314F0121613061406551FF2CF4695F1DF08C0E5
S1131500161617061806991FF1CF86957105610501
S113151008940895E894BB2766277727CB0197F9A9
S113152008950E941C0A08F48FEF08950E94A90AE6
S11315300C94570A0E94490A38F00E94500A20F07D
S1131540952311F00C94400A0C94460A11240C942F
S11315508B0A0E94680A70F3959FC1F3950F50E0BF
S1131560551F629FF001729FBB27F00DB11D639F51
S1131570AA27F00DB11DAA1F649F6627B00DA11DF7
S1131580661F829F2227B00DA11D621F739FB00D9D
S1131590A11D621F839FA00D611D221F749F33270D
S11315A0A00D611D231F849F600D211D822F762FA6
S11315B06A2F11249F5750409AF0F1F088234AF083
S11315C0EE0FFF1FBB1F661F771F881F91505040EF
S11315D0A9F79E3F510580F00C94400A0C948B0AA5
S11315E05F3FE4F3983ED4F3869577956795B79576
S11315F0F795E7959F5FC1F7FE2B880F911D969590
S1131600879597F9089519F416F40C94460A0C94E6
S1131610490B0E94700AB8F39923C9F3B6F39F5794
S1131620550B87FF0E94570B0024A0E640EA900167
S113163080585695979528F4805C660F771F881F0D
S113164020F026173707480730F4621B730B840B0E
S1131650202931294A2BA695179407942025312552
S11316604A2758F7660F771F881F20F02617370779
S1131670480730F4620B730B840B200D311D411DA0
S1131680A09581F7B901842F9158880F9695879575
S113169008959F3F31F0915020F487957795679591
S11316A0B795880F911D9695879597F90895915050
S11316B05040660F771F881FD2F7089597FB072EB7
S11316C016F4009407D077FD09D00E94810B07FC23
S11316D005D03EF4909581959F4F0895709561953E
S11316E07F4F0895A29FB001B39FC001A39F700DC7
S11316F0811D1124911DB29F700D811D1124911D16
S11317000895AA1BBB1B51E107C0AA1FBB1FA61744
S1131710B70710F0A61BB70B881F991F5A95A9F796
S113172080959095BC01CD010895AEE0B0E0EBE961
S1131730FBE00C94560E0D891E8986E08C831A8377
S113174009838FEF9FE79E838D83AE01475E5F4FD2
S11317506F89788DCE0101960E94B70BEF81F885D1
S1131760E00FF11F10822E96E4E00C94720EABE0B1
S1131770B0E0EDEBFBE00C94480E6C017B018A01B8
S1131780FC0117821682838181FFCCC1CE010196B0
S11317903C01F6019381F70193FD859193FF8191BB
S11317A07F01882309F4BAC1853239F493FD859108
S11317B093FF81917F01853229F4B60190E00E9464
S11317C0AE0DE7CF912C212C312CFFE1F315D8F08D
S11317D08B3279F038F4803279F08332A1F4232DFE
S11317E020611DC08D3261F0803369F4232D2160A6
S11317F016C0832D8260382EE32DE4603E2E2AC06D
S1131800F32DF8601DC037FC2DC020ED280F2A30C1
S113181040F08E32B9F436FC81C1232D2064322E7F
S113182019C036FE06C08AE0989E200D1124922E1F
S113183011C0EAE02E9E200D1124222EF32DF06219
S11318403F2E08C08C3621F4832D8068382E02C0C8
S1131850883641F4F70193FD859193FF81917F01CF
S11318608111B3CF982F9F7D9554933028F40C5F4A
S11318701F4F9FE399830DC0833631F0833771F096
S1131880833509F059C021C0F801808189830E5F36
S11318901F4F88248394912C530113C02801F2E034
S11318A04F0E511CF801A080B18036FE03C0692D93
S11318B070E002C06FEF7FEFC5010E94A30D4C01E1
S11318C08201F32DFF773F2E16C0280122E0420E3D
S11318D0511CF801A080B18036FE03C0692D70E070
S11318E002C06FEF7FEFC5010E94980D4C01F32DEC
S11318F0F0683F2E820133FC1BC0822D90E08816D5
S11319009906B0F4B60180E290E00E94AE0D2A94EC
S1131910F4CFF50137FC859137FE81915F01B60163
S113192090E00E94AE0D21102A9421E0821A9108C1
S11319308114910471F7E8C0843611F0893641F5B9
S1131940F80137FE07C060817181828193810C5F49
S11319501F4F08C060817181072E000C880B990B02
S11319600E5F1F4FF32DFF763F2E97FF09C0909512
S11319708095709561957F4F8F4F9F4FF0683F2EF4
S11319802AE030E0A3010E94EA0D882E861845C0A3
S1131990853731F4232D2F7EB22E2AE030E025C086
S11319A0932D997FB92E8F36C1F018F4883579F0CC
S11319B0B5C0803719F0883721F0B0C0E92FE06155
S11319C0BE2EB4FE0DC0FB2DF460BF2E09C034FE44
S11319D00AC0292F2660B22E06C028E030E005C0D8
S11319E020E130E002C020E132E0F801B7FE07C098
S11319F060817181828193810C5F1F4F06C0608179
S1131A00718180E090E00E5F1F4FA3010E94EA0DF8
S1131A10882E8618FB2DFF773F2E36FE0DC0232D12
S1131A202E7FA22E891458F434FE0BC032FC09C058
S1131A30832D8E7EA82E05C0B82CA32C03C0B82CF1
S1131A4001C0B92CA4FE0FC0FE01E80DF11D808178
S1131A50803321F49A2D997EA92E09C0A2FE06C0D6
S1131A60B394B39404C08A2D867809F0B394A3FC8C
S1131A7011C0A0FE06C0B21488F4280C922C9B1846
S1131A800EC0B21460F4B60180E290E00E94AE0D84
S1131A90B394F7CFB21418F42B1802C0982C212C4D
S1131AA0A4FE10C0B60180E390E00E94AE0DA2FE39
S1131AB017C0A1FC03C088E790E002C088E590E06D
S1131AC0B6010CC08A2D867859F0A1FE02C08BE2C3
S1131AD001C080E2A7FC8DE2B60190E00E94AE0D49
S1131AE0891438F4B60180E390E00E94AE0D9A9414
S1131AF0F7CF8A94F301E80DF11D8081B60190E0DF
S1131B000E94AE0D8110F5CF222009F442CEB60119
S1131B1080E290E00E94AE0D2A94F6CFF601868111
S1131B20978102C08FEF9FEF2B96E2E10C94640E35
S1131B30FC010590615070400110D8F78095909594
S1131B408E0F9F1F0895FC01615070400190011099
S1131B50D8F7809590958E0F9F1F08950F931F932C
S1131B60CF93DF93FB01238121FD03C08FEF9FEF10
S1131B702CC022FF16C0468157812481358142172B
S1131B80530744F4A081B1819D012F5F3F4F3183FE
S1131B9020838C93268137812F5F3F4F37832683A1
S1131BA014C08B01EC01FB010084F185E02D099543
S1131BB0892BE1F6D80116968D919C911797019681
S1131BC017969C938E931697CE01DF91CF911F9118
S1131BD00F910895FA01AA27283051F1203181F19B
S1131BE0E8946F936E7F6E5F7F4F8F4F9F4FAF4F21
S1131BF0B1E03ED0B4E03CD0670F781F891F9A1F34
S1131C00A11D680F791F8A1F911DA11D6A0F711DE7
S1131C10811D911DA11D20D009F468943F912AE0F3
S1131C20269F11243019305D3193DEF6CF010895DB
S1131C30462F4770405D4193B3E00FD0C9F7F6CF0C
S1131C40462F4F70405D4A3318F0495D31FD4052D4
S1131C50419302D0A9F7EACFB4E0A695979587956A
S1131C6077956795BA95C9F7009761057105089549
S1131C709B01AC010A2E06945795479537952795F5
S1131C80BA95C9F7620F731F841F951FA01D08958D
S1131C902F923F924F925F926F927F928F929F9278
S1131CA0AF92BF92CF92DF92EF92FF920F931F9366
S1131CB0CF93DF93CDB7DEB7CA1BDB0B0FB6F89417
S1131CC0DEBF0FBECDBF09942A88398848885F8457
S1131CD06E847D848C849B84AA84B984C884DF80C8
S1131CE0EE80FD800C811B81AA81B981CE0FD11DAC
S1131CF00FB6F894DEBF0FBECDBFED010895F89482
S1051D00FFCF0F
S1131D020101120200020002000016440000803F9A
S1131D1241542B43495053544152543D2253534C42
S1131D22222C226170692E7468696E677370656112
S1131D326B2E636F6D222C3434330D0A0041542B05
S1131D4243495053454E443D37340D0A0041542B08
S1131D5243495053454E443D37350D0A00474554D7
S1131D622068747470733A2F2F6170692E746869D5
S1131D726E67737065616B2E636F6D2F757064612E
S1131D8274653F6170695F6B65793D4E30475337C7
S1131D924838375351443449425553266669656C71
S1131DA264313D25640D0A0053657267696F2049E9
S1131DB27369646F726F00313232313730390041E6
S1131DC26E647265204E6F677565697261003132A7
S1131DD23132303438004C414253492050726F6AD8
S1131DE2656374004C4544205245442031487A00CE
S1131DF242504D20696E73743A202D2D2D004250AD
S1131E024D3A2020202020202D2D2D004261747473
S1131E126572793A20202D2D2D250042504D2069DE
S1131E226E73743A2025640046414C4C004849477D
S1131E324820465245510042504D3A20202020204D
S1131E422025642000426174746572793A20202549
S1131E52642525005420286D73293A2020202575F5
S1131E62005468726573683A202020256400416E2C
S10F1E72616C6F673A202020256400009A
S9030000FC
